{
  "contractName": "ForensicContract",
  "abi": [
    {
      "constant": true,
      "inputs": [
        {
          "name": "",
          "type": "uint256"
        }
      ],
      "name": "crime",
      "outputs": [
        {
          "name": "crime_id",
          "type": "uint256"
        },
        {
          "name": "exhibit_name",
          "type": "string"
        },
        {
          "name": "desc",
          "type": "string"
        },
        {
          "name": "timestamp",
          "type": "string"
        },
        {
          "name": "ipfsHash",
          "type": "string"
        }
      ],
      "payable": false,
      "stateMutability": "view",
      "type": "function",
      "signature": "0xe9a51a77"
    },
    {
      "constant": false,
      "inputs": [
        {
          "name": "_crime_id",
          "type": "uint256"
        },
        {
          "name": "_exhibit_name",
          "type": "string"
        },
        {
          "name": "_desc",
          "type": "string"
        },
        {
          "name": "_timestamp",
          "type": "string"
        },
        {
          "name": "_ipfsHash",
          "type": "string"
        }
      ],
      "name": "addReport",
      "outputs": [
        {
          "name": "",
          "type": "uint256"
        }
      ],
      "payable": false,
      "stateMutability": "nonpayable",
      "type": "function",
      "signature": "0xce400377"
    },
    {
      "constant": true,
      "inputs": [],
      "name": "getPatCount",
      "outputs": [
        {
          "name": "",
          "type": "uint256"
        }
      ],
      "payable": false,
      "stateMutability": "view",
      "type": "function",
      "signature": "0x2511e3c0"
    },
    {
      "constant": true,
      "inputs": [
        {
          "name": "index",
          "type": "uint256"
        }
      ],
      "name": "getPat",
      "outputs": [
        {
          "name": "",
          "type": "uint256"
        },
        {
          "name": "",
          "type": "string"
        },
        {
          "name": "",
          "type": "string"
        },
        {
          "name": "",
          "type": "string"
        },
        {
          "name": "",
          "type": "string"
        }
      ],
      "payable": false,
      "stateMutability": "view",
      "type": "function",
      "signature": "0xe4f60609"
    }
  ],
  "bytecode": "0x608060405234801561001057600080fd5b50611012806100206000396000f3fe608060405260043610610062576000357c0100000000000000000000000000000000000000000000000000000000900463ffffffff1680632511e3c014610067578063ce40037714610092578063e4f606091461033d578063e9a51a771461053c575b600080fd5b34801561007357600080fd5b5061007c61073b565b6040518082815260200191505060405180910390f35b34801561009e57600080fd5b50610327600480360360a08110156100b557600080fd5b8101908080359060200190929190803590602001906401000000008111156100dc57600080fd5b8201836020820111156100ee57600080fd5b8035906020019184600183028401116401000000008311171561011057600080fd5b91908080601f016020809104026020016040519081016040528093929190818152602001838380828437600081840152601f19601f8201169050808301925050505050505091929192908035906020019064010000000081111561017357600080fd5b82018360208201111561018557600080fd5b803590602001918460018302840111640100000000831117156101a757600080fd5b91908080601f016020809104026020016040519081016040528093929190818152602001838380828437600081840152601f19601f8201169050808301925050505050505091929192908035906020019064010000000081111561020a57600080fd5b82018360208201111561021c57600080fd5b8035906020019184600183028401116401000000008311171561023e57600080fd5b91908080601f016020809104026020016040519081016040528093929190818152602001838380828437600081840152601f19601f820116905080830192505050505050509192919290803590602001906401000000008111156102a157600080fd5b8201836020820111156102b357600080fd5b803590602001918460018302840111640100000000831117156102d557600080fd5b91908080601f016020809104026020016040519081016040528093929190818152602001838380828437600081840152601f19601f820116905080830192505050505050509192919290505050610747565b6040518082815260200191505060405180910390f35b34801561034957600080fd5b506103766004803603602081101561036057600080fd5b810190808035906020019092919050505061088f565b6040518086815260200180602001806020018060200180602001858103855289818151815260200191508051906020019080838360005b838110156103c85780820151818401526020810190506103ad565b50505050905090810190601f1680156103f55780820380516001836020036101000a031916815260200191505b50858103845288818151815260200191508051906020019080838360005b8381101561042e578082015181840152602081019050610413565b50505050905090810190601f16801561045b5780820380516001836020036101000a031916815260200191505b50858103835287818151815260200191508051906020019080838360005b83811015610494578082015181840152602081019050610479565b50505050905090810190601f1680156104c15780820380516001836020036101000a031916815260200191505b50858103825286818151815260200191508051906020019080838360005b838110156104fa5780820151818401526020810190506104df565b50505050905090810190601f1680156105275780820380516001836020036101000a031916815260200191505b50995050505050505050505060405180910390f35b34801561054857600080fd5b506105756004803603602081101561055f57600080fd5b8101908080359060200190929190505050610bbb565b6040518086815260200180602001806020018060200180602001858103855289818151815260200191508051906020019080838360005b838110156105c75780820151818401526020810190506105ac565b50505050905090810190601f1680156105f45780820380516001836020036101000a031916815260200191505b50858103845288818151815260200191508051906020019080838360005b8381101561062d578082015181840152602081019050610612565b50505050905090810190601f16801561065a5780820380516001836020036101000a031916815260200191505b50858103835287818151815260200191508051906020019080838360005b83811015610693578082015181840152602081019050610678565b50505050905090810190601f1680156106c05780820380516001836020036101000a031916815260200191505b50858103825286818151815260200191508051906020019080838360005b838110156106f95780820151818401526020810190506106de565b50505050905090810190601f1680156107265780820380516001836020036101000a031916815260200191505b50995050505050505050505060405180910390f35b60008080549050905090565b600080805480919060010161075c9190610e60565b5085600060016000805490500381548110151561077557fe5b9060005260206000209060050201600001819055508460006001600080549050038154811015156107a257fe5b906000526020600020906005020160010190805190602001906107c6929190610e92565b508360006001600080549050038154811015156107df57fe5b90600052602060002090600502016002019080519060200190610803929190610e92565b5082600060016000805490500381548110151561081c57fe5b90600052602060002090600502016003019080519060200190610840929190610e92565b5081600060016000805490500381548110151561085957fe5b9060005260206000209060050201600401908051906020019061087d929190610e92565b50600080549050905095945050505050565b60006060806060806000868154811015156108a657fe5b9060005260206000209060050201600001546000878154811015156108c757fe5b90600052602060002090600502016001016000888154811015156108e757fe5b906000526020600020906005020160020160008981548110151561090757fe5b906000526020600020906005020160030160008a81548110151561092757fe5b9060005260206000209060050201600401838054600181600116156101000203166002900480601f0160208091040260200160405190810160405280929190818152602001828054600181600116156101000203166002900480156109cd5780601f106109a2576101008083540402835291602001916109cd565b820191906000526020600020905b8154815290600101906020018083116109b057829003601f168201915b50505050509350828054600181600116156101000203166002900480601f016020809104026020016040519081016040528092919081815260200182805460018160011615610100020316600290048015610a695780601f10610a3e57610100808354040283529160200191610a69565b820191906000526020600020905b815481529060010190602001808311610a4c57829003601f168201915b50505050509250818054600181600116156101000203166002900480601f016020809104026020016040519081016040528092919081815260200182805460018160011615610100020316600290048015610b055780601f10610ada57610100808354040283529160200191610b05565b820191906000526020600020905b815481529060010190602001808311610ae857829003601f168201915b50505050509150808054600181600116156101000203166002900480601f016020809104026020016040519081016040528092919081815260200182805460018160011615610100020316600290048015610ba15780601f10610b7657610100808354040283529160200191610ba1565b820191906000526020600020905b815481529060010190602001808311610b8457829003601f168201915b505050505090509450945094509450945091939590929450565b600081815481101515610bca57fe5b9060005260206000209060050201600091509050806000015490806001018054600181600116156101000203166002900480601f016020809104026020016040519081016040528092919081815260200182805460018160011615610100020316600290048015610c7c5780601f10610c5157610100808354040283529160200191610c7c565b820191906000526020600020905b815481529060010190602001808311610c5f57829003601f168201915b505050505090806002018054600181600116156101000203166002900480601f016020809104026020016040519081016040528092919081815260200182805460018160011615610100020316600290048015610d1a5780601f10610cef57610100808354040283529160200191610d1a565b820191906000526020600020905b815481529060010190602001808311610cfd57829003601f168201915b505050505090806003018054600181600116156101000203166002900480601f016020809104026020016040519081016040528092919081815260200182805460018160011615610100020316600290048015610db85780601f10610d8d57610100808354040283529160200191610db8565b820191906000526020600020905b815481529060010190602001808311610d9b57829003601f168201915b505050505090806004018054600181600116156101000203166002900480601f016020809104026020016040519081016040528092919081815260200182805460018160011615610100020316600290048015610e565780601f10610e2b57610100808354040283529160200191610e56565b820191906000526020600020905b815481529060010190602001808311610e3957829003601f168201915b5050505050905085565b815481835581811115610e8d57600502816005028360005260206000209182019101610e8c9190610f12565b5b505050565b828054600181600116156101000203166002900490600052602060002090601f016020900481019282601f10610ed357805160ff1916838001178555610f01565b82800160010185558215610f01579182015b82811115610f00578251825591602001919060010190610ee5565b5b509050610f0e9190610f79565b5090565b610f7691905b80821115610f7257600080820160009055600182016000610f399190610f9e565b600282016000610f499190610f9e565b600382016000610f599190610f9e565b600482016000610f699190610f9e565b50600501610f18565b5090565b90565b610f9b91905b80821115610f97576000816000905550600101610f7f565b5090565b90565b50805460018160011615610100020316600290046000825580601f10610fc45750610fe3565b601f016020900490600052602060002090810190610fe29190610f79565b5b5056fea165627a7a72305820e39958d4239ed3a4f3351c347261454cc9e61b92e17e90f553e644d302ad39070029",
  "source": "pragma solidity ^0.5.0;\r\n\r\ncontract ForensicContract {  \r\n  struct CrimeDetails {\r\n        uint crime_id;\r\n        string exhibit_name;\r\n        string desc;\r\n        string timestamp;\r\n        string ipfsHash;\r\n    }\r\n    \r\n    CrimeDetails[] public crime;    \r\n\r\n    function addReport(uint _crime_id, string memory _exhibit_name, string memory _desc, string memory _timestamp, string memory _ipfsHash) public returns(uint) {\r\n        crime.length++;\r\n        crime[crime.length-1].crime_id = _crime_id;\r\n        crime[crime.length-1].exhibit_name = _exhibit_name;\r\n        crime[crime.length-1].desc = _desc;\r\n        crime[crime.length-1].timestamp = _timestamp;\r\n        crime[crime.length-1].ipfsHash = _ipfsHash;\r\n        return crime.length;        \r\n    }\r\n    \r\n    function getPatCount() public view returns(uint) {\r\n        return crime.length;\r\n    }\r\n    \r\n    function getPat(uint index) public view returns (uint, string memory, string memory,string memory, string memory)\r\n    {\r\n        return (crime[index].crime_id, crime[index].exhibit_name, crime[index].desc, crime[index].timestamp, crime[index].ipfsHash);\r\n    }\r\n    \r\n    // function getPat2(uint index) public view returns(string memory, uint, string memory, string memory)\r\n    // {\r\n    //     return (crime[index].par_rem, crime[index].fee, crime[index].message, crime[index].ipfsHash);\r\n    // }\r\n}\r\n",
  "sourcePath": "D:/Blockchain/Thadam/contracts/ForensicContract.sol",
  "compiler": {
    "name": "solc",
    "version": "0.5.0+commit.1d4f565a.Emscripten.clang"
  },
  "schemaVersion": "3.0.0",
  "updatedAt": "2019-09-13T05:44:08.789Z",
  "devdoc": {
    "methods": {}
  },
  "userdoc": {
    "methods": {}
  }
}