{
  "contractName": "SimpleStorage",
  "abi": [
    {
      "constant": true,
      "inputs": [
        {
          "name": "",
          "type": "uint256"
        }
      ],
      "name": "crime",
      "outputs": [
        {
          "name": "crime_id",
          "type": "uint256"
        },
        {
          "name": "timestamp",
          "type": "string"
        },
        {
          "name": "offense_code",
          "type": "string"
        },
        {
          "name": "description",
          "type": "string"
        }
      ],
      "payable": false,
      "stateMutability": "view",
      "type": "function",
      "signature": "0xe9a51a77"
    },
    {
      "constant": false,
      "inputs": [
        {
          "name": "_crime_id",
          "type": "uint256"
        },
        {
          "name": "_timestamp",
          "type": "string"
        },
        {
          "name": "_offense_code",
          "type": "string"
        },
        {
          "name": "_description",
          "type": "string"
        }
      ],
      "name": "addCrimeReport",
      "outputs": [
        {
          "name": "",
          "type": "uint256"
        }
      ],
      "payable": false,
      "stateMutability": "nonpayable",
      "type": "function",
      "signature": "0x98231bc9"
    },
    {
      "constant": true,
      "inputs": [],
      "name": "getCrimeCount",
      "outputs": [
        {
          "name": "",
          "type": "uint256"
        }
      ],
      "payable": false,
      "stateMutability": "view",
      "type": "function",
      "signature": "0xfdb917ed"
    },
    {
      "constant": true,
      "inputs": [
        {
          "name": "index",
          "type": "uint256"
        }
      ],
      "name": "getCrimeBlock",
      "outputs": [
        {
          "name": "",
          "type": "uint256"
        },
        {
          "name": "",
          "type": "string"
        },
        {
          "name": "",
          "type": "string"
        },
        {
          "name": "",
          "type": "string"
        }
      ],
      "payable": false,
      "stateMutability": "view",
      "type": "function",
      "signature": "0x3cb4c1cb"
    },
    {
      "constant": true,
      "inputs": [],
      "name": "getAllCrimeDetails",
      "outputs": [
        {
          "components": [
            {
              "name": "crime_id",
              "type": "uint256"
            },
            {
              "name": "timestamp",
              "type": "string"
            },
            {
              "name": "offense_code",
              "type": "string"
            },
            {
              "name": "description",
              "type": "string"
            }
          ],
          "name": "",
          "type": "tuple[]"
        }
      ],
      "payable": false,
      "stateMutability": "view",
      "type": "function",
      "signature": "0x644f30de"
    }
  ],
  "bytecode": "0x608060405234801561001057600080fd5b50611010806100206000396000f3fe60806040526004361061006d576000357c0100000000000000000000000000000000000000000000000000000000900463ffffffff1680633cb4c1cb14610072578063644f30de146100b257806398231bc9146100dd578063e9a51a771461011a578063fdb917ed1461015a575b600080fd5b34801561007e57600080fd5b5061009960048036036100949190810190610bbc565b610185565b6040516100a99493929190610e27565b60405180910390f35b3480156100be57600080fd5b506100c76103f0565b6040516100d49190610dea565b60405180910390f35b3480156100e957600080fd5b5061010460048036036100ff9190810190610be5565b610696565b6040516101119190610e0c565b60405180910390f35b34801561012657600080fd5b50610141600480360361013c9190810190610bbc565b6107a0565b6040516101519493929190610e81565b60405180910390f35b34801561016657600080fd5b5061016f6109a7565b60405161017c9190610e0c565b60405180910390f35b6000606080606060008581548110151561019b57fe5b9060005260206000209060040201600001546000868154811015156101bc57fe5b90600052602060002090600402016001016000878154811015156101dc57fe5b90600052602060002090600402016002016000888154811015156101fc57fe5b9060005260206000209060040201600301828054600181600116156101000203166002900480601f0160208091040260200160405190810160405280929190818152602001828054600181600116156101000203166002900480156102a25780601f10610277576101008083540402835291602001916102a2565b820191906000526020600020905b81548152906001019060200180831161028557829003601f168201915b50505050509250818054600181600116156101000203166002900480601f01602080910402602001604051908101604052809291908181526020018280546001816001161561010002031660029004801561033e5780601f106103135761010080835404028352916020019161033e565b820191906000526020600020905b81548152906001019060200180831161032157829003601f168201915b50505050509150808054600181600116156101000203166002900480601f0160208091040260200160405190810160405280929190818152602001828054600181600116156101000203166002900480156103da5780601f106103af576101008083540402835291602001916103da565b820191906000526020600020905b8154815290600101906020018083116103bd57829003601f168201915b5050505050905093509350935093509193509193565b60608060008054905060405190808252806020026020018201604052801561043257816020015b61041f6109b3565b8152602001906001900390816104175790505b50905060008090505b60008054905081101561068e576000808281548110151561045857fe5b90600052602060002090600402019050806080604051908101604052908160008201548152602001600182018054600181600116156101000203166002900480601f0160208091040260200160405190810160405280929190818152602001828054600181600116156101000203166002900480156105185780601f106104ed57610100808354040283529160200191610518565b820191906000526020600020905b8154815290600101906020018083116104fb57829003601f168201915b50505050508152602001600282018054600181600116156101000203166002900480601f0160208091040260200160405190810160405280929190818152602001828054600181600116156101000203166002900480156105ba5780601f1061058f576101008083540402835291602001916105ba565b820191906000526020600020905b81548152906001019060200180831161059d57829003601f168201915b50505050508152602001600382018054600181600116156101000203166002900480601f01602080910402602001604051908101604052809291908181526020018280546001816001161561010002031660029004801561065c5780601f106106315761010080835404028352916020019161065c565b820191906000526020600020905b81548152906001019060200180831161063f57829003601f168201915b505050505081525050838381518110151561067357fe5b9060200190602002018190525050808060010191505061043b565b508091505090565b60008080548091906001016106ab91906109dc565b508460006001600080549050038154811015156106c457fe5b9060005260206000209060040201600001819055508360006001600080549050038154811015156106f157fe5b90600052602060002090600402016001019080519060200190610715929190610a0e565b5082600060016000805490500381548110151561072e57fe5b90600052602060002090600402016002019080519060200190610752929190610a0e565b5081600060016000805490500381548110151561076b57fe5b9060005260206000209060040201600301908051906020019061078f929190610a0e565b506000805490509050949350505050565b6000818154811015156107af57fe5b9060005260206000209060040201600091509050806000015490806001018054600181600116156101000203166002900480601f0160208091040260200160405190810160405280929190818152602001828054600181600116156101000203166002900480156108615780601f1061083657610100808354040283529160200191610861565b820191906000526020600020905b81548152906001019060200180831161084457829003601f168201915b505050505090806002018054600181600116156101000203166002900480601f0160208091040260200160405190810160405280929190818152602001828054600181600116156101000203166002900480156108ff5780601f106108d4576101008083540402835291602001916108ff565b820191906000526020600020905b8154815290600101906020018083116108e257829003601f168201915b505050505090806003018054600181600116156101000203166002900480601f01602080910402602001604051908101604052809291908181526020018280546001816001161561010002031660029004801561099d5780601f106109725761010080835404028352916020019161099d565b820191906000526020600020905b81548152906001019060200180831161098057829003601f168201915b5050505050905084565b60008080549050905090565b608060405190810160405280600081526020016060815260200160608152602001606081525090565b815481835581811115610a0957600402816004028360005260206000209182019101610a089190610a8e565b5b505050565b828054600181600116156101000203166002900490600052602060002090601f016020900481019282601f10610a4f57805160ff1916838001178555610a7d565b82800160010185558215610a7d579182015b82811115610a7c578251825591602001919060010190610a61565b5b509050610a8a9190610ae5565b5090565b610ae291905b80821115610ade57600080820160009055600182016000610ab59190610b0a565b600282016000610ac59190610b0a565b600382016000610ad59190610b0a565b50600401610a94565b5090565b90565b610b0791905b80821115610b03576000816000905550600101610aeb565b5090565b90565b50805460018160011615610100020316600290046000825580601f10610b305750610b4f565b601f016020900490600052602060002090810190610b4e9190610ae5565b5b50565b600082601f8301121515610b6557600080fd5b8135610b78610b7382610f08565b610edb565b91508082526020830160208301858383011115610b9457600080fd5b610b9f838284610f83565b50505092915050565b6000610bb48235610f79565b905092915050565b600060208284031215610bce57600080fd5b6000610bdc84828501610ba8565b91505092915050565b60008060008060808587031215610bfb57600080fd5b6000610c0987828801610ba8565b945050602085013567ffffffffffffffff811115610c2657600080fd5b610c3287828801610b52565b935050604085013567ffffffffffffffff811115610c4f57600080fd5b610c5b87828801610b52565b925050606085013567ffffffffffffffff811115610c7857600080fd5b610c8487828801610b52565b91505092959194509250565b6000610c9b82610f41565b80845260208401935083602082028501610cb485610f34565b60005b84811015610ced578383038852610ccf838351610d6a565b9250610cda82610f62565b9150602088019750600181019050610cb7565b508196508694505050505092915050565b6000610d0982610f57565b808452610d1d816020860160208601610f92565b610d2681610fc5565b602085010191505092915050565b6000610d3f82610f4c565b808452610d53816020860160208601610f92565b610d5c81610fc5565b602085010191505092915050565b6000608083016000830151610d826000860182610ddb565b5060208301518482036020860152610d9a8282610d34565b91505060408301518482036040860152610db48282610d34565b91505060608301518482036060860152610dce8282610d34565b9150508091505092915050565b610de481610f6f565b82525050565b60006020820190508181036000830152610e048184610c90565b905092915050565b6000602082019050610e216000830184610ddb565b92915050565b6000608082019050610e3c6000830187610ddb565b8181036020830152610e4e8186610cfe565b90508181036040830152610e628185610cfe565b90508181036060830152610e768184610cfe565b905095945050505050565b6000608082019050610e966000830187610ddb565b8181036020830152610ea88186610d34565b90508181036040830152610ebc8185610d34565b90508181036060830152610ed08184610d34565b905095945050505050565b6000604051905081810181811067ffffffffffffffff82111715610efe57600080fd5b8060405250919050565b600067ffffffffffffffff821115610f1f57600080fd5b601f19601f8301169050602081019050919050565b6000602082019050919050565b600081519050919050565b600081519050919050565b600081519050919050565b6000602082019050919050565b6000819050919050565b6000819050919050565b82818337600083830152505050565b60005b83811015610fb0578082015181840152602081019050610f95565b83811115610fbf576000848401525b50505050565b6000601f19601f830116905091905056fea265627a7a72305820b63802e5daf9997e049822588c1f1da5a369a5dc535b994af131a13f866d886d6c6578706572696d656e74616cf50037",
  "source": "pragma solidity ^0.5.0;\npragma experimental ABIEncoderV2;\n\ncontract SimpleStorage {  \n  struct CrimeDetails {\n        uint crime_id;\n        string timestamp;\n        string offense_code;\n        string description;        \n    }\n    \n    CrimeDetails[] public crime;    \n\n    function addCrimeReport(uint _crime_id, string memory _timestamp, string memory _offense_code, string memory _description) public returns(uint) {\n        crime.length++;\n        crime[crime.length-1].crime_id = _crime_id;\n        crime[crime.length-1].timestamp = _timestamp;\n        crime[crime.length-1].offense_code = _offense_code;\n        crime[crime.length-1].description = _description;\n        return crime.length;        \n    }\n    \n    function getCrimeCount() public view returns(uint) {\n        return crime.length;\n    }\n    \n    function getCrimeBlock(uint index) public view returns (uint, string memory, string memory, string memory)\n    {\n        return (crime[index].crime_id, crime[index].timestamp, crime[index].offense_code, crime[index].description);\n    }\n    function getAllCrimeDetails() public view returns (CrimeDetails[] memory)\n    {\n        CrimeDetails[] memory id = new CrimeDetails[](crime.length);\n        for (uint i = 0; i < crime.length; i++) {\n            CrimeDetails storage tempCrime = crime[i];\n            id[i] = tempCrime;\n        }\n        return id;\n    }\n}\n",
  "sourcePath": "D:/Blockchain/Thadam/contracts/SimpleStorage.sol",
  "compiler": {
    "name": "solc",
    "version": "0.5.0+commit.1d4f565a.Emscripten.clang"
  },
  "schemaVersion": "3.0.0",
  "updatedAt": "2019-09-13T05:44:08.792Z",
  "devdoc": {
    "methods": {}
  },
  "userdoc": {
    "methods": {}
  }
}